{
  "contractName": "AttendanceContract",
  "abi": [
    {
      "anonymous": false,
      "inputs": [
        {
          "indexed": false,
          "internalType": "string",
          "name": "fileName",
          "type": "string"
        },
        {
          "indexed": false,
          "internalType": "address",
          "name": "sender",
          "type": "address"
        }
      ],
      "name": "AttendanceUploaded",
      "type": "event"
    },
    {
      "inputs": [
        {
          "internalType": "string",
          "name": "fileName",
          "type": "string"
        }
      ],
      "name": "uploadAttendance",
      "outputs": [],
      "stateMutability": "nonpayable",
      "type": "function"
    },
    {
      "inputs": [
        {
          "internalType": "address",
          "name": "studentAddress",
          "type": "address"
        },
        {
          "internalType": "string",
          "name": "fileName",
          "type": "string"
        }
      ],
      "name": "checkAttendance",
      "outputs": [
        {
          "internalType": "bool",
          "name": "",
          "type": "bool"
        }
      ],
      "stateMutability": "view",
      "type": "function"
    }
  ],
  "bytecode": "0x608060405234801561001057600080fd5b5061076c806100206000396000f3fe608060405234801561001057600080fd5b50600436106100365760003560e01c80633cff12b21461003b5780633ff5eea21461006b575b600080fd5b6100556004803603810190610050919061044c565b610087565b60405161006291906104c3565b60405180910390f35b610085600480360381019061008091906104de565b6100f9565b005b60008060008473ffffffffffffffffffffffffffffffffffffffff1673ffffffffffffffffffffffffffffffffffffffff168152602001908152602001600020826040516100d59190610598565b908152602001604051809103902060009054906101000a900460ff16905092915050565b600081511161013d576040517f08c379a00000000000000000000000000000000000000000000000000000000081526004016101349061060c565b60405180910390fd5b6000803373ffffffffffffffffffffffffffffffffffffffff1673ffffffffffffffffffffffffffffffffffffffff168152602001908152602001600020816040516101899190610598565b908152602001604051809103902060009054906101000a900460ff16156101e5576040517f08c379a00000000000000000000000000000000000000000000000000000000081526004016101dc9061069e565b60405180910390fd5b60016000803373ffffffffffffffffffffffffffffffffffffffff1673ffffffffffffffffffffffffffffffffffffffff168152602001908152602001600020826040516102339190610598565b908152602001604051809103902060006101000a81548160ff0219169083151502179055507f1134e7d7aa5d2b8b0cbdc0b591473701d1de101bcd864d23eb7a18d90bdb46f38133604051610289929190610706565b60405180910390a150565b6000604051905090565b600080fd5b600080fd5b600073ffffffffffffffffffffffffffffffffffffffff82169050919050565b60006102d3826102a8565b9050919050565b6102e3816102c8565b81146102ee57600080fd5b50565b600081359050610300816102da565b92915050565b600080fd5b600080fd5b6000601f19601f8301169050919050565b7f4e487b7100000000000000000000000000000000000000000000000000000000600052604160045260246000fd5b61035982610310565b810181811067ffffffffffffffff8211171561037857610377610321565b5b80604052505050565b600061038b610294565b90506103978282610350565b919050565b600067ffffffffffffffff8211156103b7576103b6610321565b5b6103c082610310565b9050602081019050919050565b82818337600083830152505050565b60006103ef6103ea8461039c565b610381565b90508281526020810184848401111561040b5761040a61030b565b5b6104168482856103cd565b509392505050565b600082601f83011261043357610432610306565b5b81356104438482602086016103dc565b91505092915050565b600080604083850312156104635761046261029e565b5b6000610471858286016102f1565b925050602083013567ffffffffffffffff811115610492576104916102a3565b5b61049e8582860161041e565b9150509250929050565b60008115159050919050565b6104bd816104a8565b82525050565b60006020820190506104d860008301846104b4565b92915050565b6000602082840312156104f4576104f361029e565b5b600082013567ffffffffffffffff811115610512576105116102a3565b5b61051e8482850161041e565b91505092915050565b600081519050919050565b600081905092915050565b60005b8381101561055b578082015181840152602081019050610540565b60008484015250505050565b600061057282610527565b61057c8185610532565b935061058c81856020860161053d565b80840191505092915050565b60006105a48284610567565b915081905092915050565b600082825260208201905092915050565b7f46696c65206e616d652063616e6e6f7420626520656d70747900000000000000600082015250565b60006105f66019836105af565b9150610601826105c0565b602082019050919050565b60006020820190508181036000830152610625816105e9565b9050919050565b7f417474656e64616e636520616c72656164792075706c6f6164656420666f722060008201527f746869732066696c65206e616d65000000000000000000000000000000000000602082015250565b6000610688602e836105af565b91506106938261062c565b604082019050919050565b600060208201905081810360008301526106b78161067b565b9050919050565b60006106c982610527565b6106d381856105af565b93506106e381856020860161053d565b6106ec81610310565b840191505092915050565b610700816102c8565b82525050565b6000604082019050818103600083015261072081856106be565b905061072f60208301846106f7565b939250505056fea264697066735822122026f73867d1422f66fcd4a00962151f74f647ac103b8fd2351437f7f86b6fb12f64736f6c63430008130033",
  "immutableReferences": {},
  "source": "pragma solidity ^0.8.0;\r\n\r\ncontract AttendanceContract {\r\n    \r\n    event AttendanceUploaded(string fileName, address sender);\r\n\r\n    mapping (address => mapping(string => bool)) attendanceRecords;\r\n\r\n    function uploadAttendance(string memory fileName) public {\r\n        require(bytes(fileName).length > 0, \"File name cannot be empty\");\r\n        require(!attendanceRecords[msg.sender][fileName], \"Attendance already uploaded for this file name\");\r\n\r\n        attendanceRecords[msg.sender][fileName] = true;\r\n        emit AttendanceUploaded(fileName, msg.sender);\r\n    }\r\n\r\n    function checkAttendance(address studentAddress, string memory fileName) public view returns (bool) {\r\n        return attendanceRecords[studentAddress][fileName];\r\n    }\r\n}",
  "sourcePath": "C:\\Users\\Abdul Samad\\OneDrive\\Desktop\\Workspace\\My Projects\\BE Project\\contracts\\upload.sol",
  "compiler": {
    "name": "solc",
    "version": "0.8.19+commit.7dd6d404.Emscripten.clang"
  },
  "schemaVersion": "3.4.13",
  "updatedAt": "2023-04-05T17:19:19.437Z",
  "devdoc": {
    "kind": "dev",
    "methods": {},
    "version": 1
  },
  "userdoc": {
    "kind": "user",
    "methods": {},
    "version": 1
  }
}