{
  "contractName": "CSVStorage",
  "abi": [
    {
      "inputs": [
        {
          "internalType": "uint256",
          "name": "_id",
          "type": "uint256"
        },
        {
          "internalType": "string",
          "name": "_name",
          "type": "string"
        },
        {
          "internalType": "string",
          "name": "_time",
          "type": "string"
        },
        {
          "internalType": "string",
          "name": "_date",
          "type": "string"
        }
      ],
      "name": "storeCSV",
      "outputs": [],
      "stateMutability": "nonpayable",
      "type": "function"
    },
    {
      "inputs": [
        {
          "internalType": "uint256",
          "name": "_index",
          "type": "uint256"
        }
      ],
      "name": "getCSV",
      "outputs": [
        {
          "internalType": "uint256",
          "name": "",
          "type": "uint256"
        },
        {
          "internalType": "string",
          "name": "",
          "type": "string"
        },
        {
          "internalType": "string",
          "name": "",
          "type": "string"
        },
        {
          "internalType": "string",
          "name": "",
          "type": "string"
        }
      ],
      "stateMutability": "view",
      "type": "function"
    },
    {
      "inputs": [],
      "name": "getCSVCount",
      "outputs": [
        {
          "internalType": "uint256",
          "name": "",
          "type": "uint256"
        }
      ],
      "stateMutability": "view",
      "type": "function"
    }
  ],
  "bytecode": "0x608060405234801561001057600080fd5b50610a72806100206000396000f3fe608060405234801561001057600080fd5b50600436106100415760003560e01c8063a16d646914610046578063b6a2fb1914610062578063d0a6d14514610080575b600080fd5b610060600480360381019061005b9190610544565b6100b3565b005b61006a610159565b604051610077919061060e565b60405180910390f35b61009a60048036038101906100959190610629565b610165565b6040516100aa94939291906106d5565b60405180910390f35b600060405180608001604052808681526020018581526020018481526020018381525090506000819080600181540180825580915050600190039060005260206000209060040201600090919091909150600082015181600001556020820151816001019081610123919061093b565b506040820151816002019081610139919061093b565b50606082015181600301908161014f919061093b565b5050505050505050565b60008080549050905090565b60006060806060600085815481106101805761017f610a0d565b5b906000526020600020906004020160000154600086815481106101a6576101a5610a0d565b5b9060005260206000209060040201600101600087815481106101cb576101ca610a0d565b5b9060005260206000209060040201600201600088815481106101f0576101ef610a0d565b5b906000526020600020906004020160030182805461020d9061075e565b80601f01602080910402602001604051908101604052809291908181526020018280546102399061075e565b80156102865780601f1061025b57610100808354040283529160200191610286565b820191906000526020600020905b81548152906001019060200180831161026957829003601f168201915b505050505092508180546102999061075e565b80601f01602080910402602001604051908101604052809291908181526020018280546102c59061075e565b80156103125780601f106102e757610100808354040283529160200191610312565b820191906000526020600020905b8154815290600101906020018083116102f557829003601f168201915b505050505091508080546103259061075e565b80601f01602080910402602001604051908101604052809291908181526020018280546103519061075e565b801561039e5780601f106103735761010080835404028352916020019161039e565b820191906000526020600020905b81548152906001019060200180831161038157829003601f168201915b5050505050905093509350935093509193509193565b6000604051905090565b600080fd5b600080fd5b6000819050919050565b6103db816103c8565b81146103e657600080fd5b50565b6000813590506103f8816103d2565b92915050565b600080fd5b600080fd5b6000601f19601f8301169050919050565b7f4e487b7100000000000000000000000000000000000000000000000000000000600052604160045260246000fd5b61045182610408565b810181811067ffffffffffffffff821117156104705761046f610419565b5b80604052505050565b60006104836103b4565b905061048f8282610448565b919050565b600067ffffffffffffffff8211156104af576104ae610419565b5b6104b882610408565b9050602081019050919050565b82818337600083830152505050565b60006104e76104e284610494565b610479565b90508281526020810184848401111561050357610502610403565b5b61050e8482856104c5565b509392505050565b600082601f83011261052b5761052a6103fe565b5b813561053b8482602086016104d4565b91505092915050565b6000806000806080858703121561055e5761055d6103be565b5b600061056c878288016103e9565b945050602085013567ffffffffffffffff81111561058d5761058c6103c3565b5b61059987828801610516565b935050604085013567ffffffffffffffff8111156105ba576105b96103c3565b5b6105c687828801610516565b925050606085013567ffffffffffffffff8111156105e7576105e66103c3565b5b6105f387828801610516565b91505092959194509250565b610608816103c8565b82525050565b600060208201905061062360008301846105ff565b92915050565b60006020828403121561063f5761063e6103be565b5b600061064d848285016103e9565b91505092915050565b600081519050919050565b600082825260208201905092915050565b60005b83811015610690578082015181840152602081019050610675565b60008484015250505050565b60006106a782610656565b6106b18185610661565b93506106c1818560208601610672565b6106ca81610408565b840191505092915050565b60006080820190506106ea60008301876105ff565b81810360208301526106fc818661069c565b90508181036040830152610710818561069c565b90508181036060830152610724818461069c565b905095945050505050565b7f4e487b7100000000000000000000000000000000000000000000000000000000600052602260045260246000fd5b6000600282049050600182168061077657607f821691505b6020821081036107895761078861072f565b5b50919050565b60008190508160005260206000209050919050565b60006020601f8301049050919050565b600082821b905092915050565b6000600883026107f17fffffffffffffffffffffffffffffffffffffffffffffffffffffffffffffffff826107b4565b6107fb86836107b4565b95508019841693508086168417925050509392505050565b6000819050919050565b600061083861083361082e846103c8565b610813565b6103c8565b9050919050565b6000819050919050565b6108528361081d565b61086661085e8261083f565b8484546107c1565b825550505050565b600090565b61087b61086e565b610886818484610849565b505050565b5b818110156108aa5761089f600082610873565b60018101905061088c565b5050565b601f8211156108ef576108c08161078f565b6108c9846107a4565b810160208510156108d8578190505b6108ec6108e4856107a4565b83018261088b565b50505b505050565b600082821c905092915050565b6000610912600019846008026108f4565b1980831691505092915050565b600061092b8383610901565b9150826002028217905092915050565b61094482610656565b67ffffffffffffffff81111561095d5761095c610419565b5b610967825461075e565b6109728282856108ae565b600060209050601f8311600181146109a55760008415610993578287015190505b61099d858261091f565b865550610a05565b601f1984166109b38661078f565b60005b828110156109db578489015182556001820191506020850194506020810190506109b6565b868310156109f857848901516109f4601f891682610901565b8355505b6001600288020188555050505b505050505050565b7f4e487b7100000000000000000000000000000000000000000000000000000000600052603260045260246000fdfea2646970667358221220befc42ac7caa5c30b18d9b39c449fb806aaa2697171ab7a0a7f1ae1c5b6746a464736f6c63430008130033",
  "immutableReferences": {},
  "source": "// SPDX-License-Identifier:MIT\r\npragma solidity ^0.8.0;\r\n\r\n\r\ncontract CSVStorage {\r\n    struct CSVData {\r\n        uint id;\r\n        string name;\r\n        string time;\r\n        string date;\r\n    }\r\n    \r\n    CSVData[] private csvData;\r\n\r\n   \r\n        function storeCSV(uint _id, string memory _name, string memory _time, string memory _date) public {\r\n        CSVData memory newCSVData = CSVData(_id, _name, _time,_date);\r\n        csvData.push(newCSVData);\r\n    }\r\n    \r\n    \r\n    function getCSV(uint _index) public view returns (uint, string memory, string memory,string memory) {\r\n        return (csvData[_index].id, csvData[_index].name, csvData[_index].time,csvData[_index].date);\r\n    }\r\n    \r\n    function getCSVCount() public view returns (uint) {\r\n        return csvData.length;\r\n    }\r\n}",
  "sourcePath": "C:\\Users\\Abdul Samad\\OneDrive\\Desktop\\Workspace\\My Projects\\BE Project\\contracts\\Agent.sol",
  "compiler": {
    "name": "solc",
    "version": "0.8.19+commit.7dd6d404.Emscripten.clang"
  },
  "schemaVersion": "3.4.13",
  "updatedAt": "2023-04-25T13:22:41.579Z",
  "devdoc": {
    "kind": "dev",
    "methods": {},
    "version": 1
  },
  "userdoc": {
    "kind": "user",
    "methods": {},
    "version": 1
  }
}